:02000000472B8C
:1000060083120313BE03BE033E08003C03181028E8
:10001600BE030000000000000728000000000000EA
:06002600000000000800CC
:10002C0083120313F801F9011030FC00710DF80D67
:10003C00F90D7408F8027508031C750FF902031802
:10004C002E287408F80775080318750FF9070310A4
:0A005C00F00DF10DFC0B1C2808004C
:1000660083120313FB01FA01F901F801A001730DD4
:10007600F80D7408F8027508031C750FF902760866
:10008600031C760FFA027708031C770FFB020001A8
:10009600031C0130A002F30D0730FC00730DF80DB0
:1000A600F90DFA0DFB0DA00D7408731C6C28F802EF
:1000B6007508031C750FF9027608031C760FFA0201
:1000C6007708031C770FFB020001031C0130A00216
:1000D6007D28F80775080318750FF90776080318C1
:1000E600760FFA0777080318770FFB070001031846
:1000F6000130A007F30DFC0B5128720DF80DF90D18
:10010600FA0DFB0DA00D7408731C9B28F8027508E8
:10011600031C750FF9027608031C760FFA0277089E
:10012600031C770FFB020001031C0130A002AC2860
:10013600F80775080318750FF90776080318760F80
:10014600FA0777080318770FFB0700010318013039
:10015600A007F20D0730FC00720DF80DF90DFA0D2F
:10016600FB0DA00D7408721CCA28F8027508031C42
:10017600750FF9027608031C760FFA027708031C3E
:10018600770FFB020001031C0130A002DB28F807F1
:1001960075080318750FF90776080318760FFA071E
:1001A60077080318770FFB07000103180130A00733
:1001B600F20DFC0BAF28710DF80DF90DFA0DFB0DC4
:1001C600A00D7408721CF928F8027508031C750F37
:1001D600F9027608031C760FFA027708031C770FDC
:1001E600FB020001031C0130A0020A29F80775086A
:1001F6000318750FF90776080318760FFA077708BC
:100206000318770FFB07000103180130A007F10D53
:100216000730FC00710DF80DF90DFA0DFB0DA00D60
:100226007408711C2829F8027508031C750FF90259
:100236007608031C760FFA027708031C770FFB0279
:100246000001031C0130A0023929F80775080318BC
:10025600750FF90776080318760FFA07770803185B
:10026600770FFB07000103180130A007F10DFC0B07
:100276000D29700DF80DF90DFA0DFB0DA00D740882
:10028600711C5729F8027508031C750FF9027608C8
:10029600031C760FFA027708031C770FFB02000196
:1002A600031C0130A0026829F80775080318750FAA
:1002B600F90776080318760FFA0777080318770FF9
:1002C600FB07000103180130A007F00D0730FC0002
:1002D600700DF80DF90DFA0DFB0DA00D7408701CCC
:1002E6008629F8027508031C750FF9027608031CA7
:1002F600760FFA027708031C770FFB020001031C36
:100306000130A0029729F80775080318750FF90739
:1003160076080318760FFA0777080318770FFB0796
:10032600000103180130A007F00DFC0B6B297018B3
:10033600AA297408F80775080318750FF9077608CF
:100346000318760FFA0777080318770FFB070800DC
:10035600831203132230FC00F801F901FA01FB01B4
:10036600FC030319E1290310FB0CFA0CF90CF80C39
:10037600F30CF20CF10CF00C031CB329FC0303196B
:10038600D3297408F80775080318750FF907760856
:100396000318760FFA0777080318770FFB07B729B4
:1003A6007408F80775080318750FF9077608031817
:0E03B600760FFA0777080318770FFB07080089
:1003C400403083120313F0001F30F100F201F301F7
:0203D40008001F
:1003D600023083120313FC004930FD00FD0BF129A6
:0A03E600FC0BF129000000000800E4
:0E03F0008312031328088A00270882000800E1
:1003FE00E221E830F4000330F500F601F701AB21FD
:10040E007008BA007108BB007208BC007308BD000A
:10041E003208F4003308F500F601F70133207008B6
:10042E00BA007108BB007208BC007308BD007008EA
:10043E00F5007108F6007208F7007308F800F80C62
:10044E00F70CF60CF50CF813F80CF70CF60CF50C83
:10045E00F8137508F0007608F1007708F2007808B6
:10046E00F300F30CF20CF10CF00CF3137008B60061
:10047E007108B700E2213408F4003508F500F601E2
:10048E00F701AB213608F9003708FA00FB01FC0131
:10049E000330F8007908F4007A08F5007B08F600BE
:1004AE007C08F70078080319632AF40DF50DF60D94
:1004BE00F70D7410FF3E5A2A33207008BA007108E7
:1004CE00BB007208BC007308BD000A30F400003097
:1004DE00F5003608F0003708F10016207008B60057
:1004EE007108B70000307102031D7F2A03307002BD
:1004FE000318822ACF2A290884003D08003C031DD8
:10050E00922A3C08003C031D922A3B08003C031D26
:10051E00922A3A08003C0318CD2A2A08800437088C
:10052E000319A92AB801B90100303902031DA12A05
:10053E00370838020318A92ABE010320B80A031986
:10054E00B90A9B2A3608BE0003202B0880053708FF
:10055E000319C12AB801B90100303902031DB92AA5
:10056E00370838020318C12ABE010320B80A03193E
:10057E00B90AB32A3608BE0003200130BA02031CA2
:10058E00BB02031CBC02031CBD02842A2B0880057F
:02059E00080053
:1005A000831203132108B2002208B3002308B40009
:1005B0002408B500FF212508B2002608B30023084F
:0A05C000B4002408B500FF21080074
:1005CA0083120313B1012D08F1000130F000710804
:1005DA000319F32AF00D7010FF3EED2A7008B000DF
:1005EA002C08840070080005F10071080130031D11
:1005FA000030F0002F08F00603191B2B2E08003CD0
:10060A0003180B2BEB21EB21AE03032B2C088400E0
:10061A0030080005F10071080130031D0030F000B8
:10062A002F08F00603191B2BFF30B1003108F00028
:02063A000800B6
:10063C00F8218A110A128000840AA70A0319A80A51
:08064C00F003031D1E2B080042
:10065400831203132C08A9002D08F1000130F000C7
:1006640071080319392BF00D7010FF3E332B7008FD
:10067400AA00F0097008AB0080302C0784007008D1
:0A068400800584137008800508004B
:10068E00DD3083120313A1000430A2007030A300EA
:10069E000330A4002730A5000530A60083160317EB
:1006AE0088018901831287138813F8308316031388
:1006BE00860007308312AC000330AD002A230630CB
:1006CE00AC000330AD000130AE000130AF00E522CA
:1006DE0070080319732BD0220230FB000430FC008B
:1006EE00BA30FD00FD0B792BFC0B792BFB0B792B14
:1006FE0000000630AC000430AD000130AE00013019
:10070E00AF00E52270080319992B0230FB0004306C
:10071E00FC00BA30FD00FD0B922BFC0B922BFB0B59
:08072E00922B0000662B9A2BB0
:04400E00F22F000786
:00000001FF
